{
  "_format": "hh-sol-artifact-1",
  "contractName": "Voting",
  "sourceName": "contracts/Voting.sol",
  "abi": [
    {
      "inputs": [],
      "stateMutability": "nonpayable",
      "type": "constructor"
    },
    {
      "anonymous": false,
      "inputs": [
        {
          "indexed": false,
          "internalType": "address",
          "name": "voter",
          "type": "address"
        },
        {
          "indexed": false,
          "internalType": "uint256",
          "name": "proposalId",
          "type": "uint256"
        }
      ],
      "name": "VoteEvent",
      "type": "event"
    },
    {
      "anonymous": false,
      "inputs": [],
      "name": "VoteRestart",
      "type": "event"
    },
    {
      "anonymous": false,
      "inputs": [
        {
          "indexed": false,
          "internalType": "uint256",
          "name": "proposalId",
          "type": "uint256"
        },
        {
          "indexed": false,
          "internalType": "address",
          "name": "proposer",
          "type": "address"
        },
        {
          "indexed": false,
          "internalType": "uint256",
          "name": "voteCount",
          "type": "uint256"
        }
      ],
      "name": "VoteResult",
      "type": "event"
    },
    {
      "anonymous": false,
      "inputs": [
        {
          "indexed": false,
          "internalType": "uint256",
          "name": "startTime",
          "type": "uint256"
        },
        {
          "indexed": false,
          "internalType": "uint256",
          "name": "endTime",
          "type": "uint256"
        }
      ],
      "name": "VoteStart",
      "type": "event"
    },
    {
      "anonymous": false,
      "inputs": [
        {
          "indexed": false,
          "internalType": "uint256",
          "name": "proposalId",
          "type": "uint256"
        },
        {
          "indexed": false,
          "internalType": "address",
          "name": "proposer",
          "type": "address"
        }
      ],
      "name": "setProposal",
      "type": "event"
    },
    {
      "anonymous": false,
      "inputs": [
        {
          "indexed": false,
          "internalType": "address",
          "name": "addr",
          "type": "address"
        }
      ],
      "name": "setUser",
      "type": "event"
    },
    {
      "anonymous": false,
      "inputs": [
        {
          "indexed": false,
          "internalType": "address",
          "name": "voter",
          "type": "address"
        },
        {
          "indexed": false,
          "internalType": "uint256",
          "name": "weight",
          "type": "uint256"
        }
      ],
      "name": "setVoter",
      "type": "event"
    },
    {
      "anonymous": false,
      "inputs": [
        {
          "indexed": false,
          "internalType": "address",
          "name": "voter",
          "type": "address"
        },
        {
          "indexed": false,
          "internalType": "uint256",
          "name": "weight",
          "type": "uint256"
        }
      ],
      "name": "updateVoter",
      "type": "event"
    },
    {
      "inputs": [],
      "name": "deployer",
      "outputs": [
        {
          "internalType": "address",
          "name": "",
          "type": "address"
        }
      ],
      "stateMutability": "view",
      "type": "function"
    },
    {
      "inputs": [],
      "name": "endTime",
      "outputs": [
        {
          "internalType": "uint256",
          "name": "",
          "type": "uint256"
        }
      ],
      "stateMutability": "view",
      "type": "function"
    },
    {
      "inputs": [],
      "name": "endVote",
      "outputs": [],
      "stateMutability": "nonpayable",
      "type": "function"
    },
    {
      "inputs": [
        {
          "internalType": "uint256",
          "name": "_proposalId",
          "type": "uint256"
        }
      ],
      "name": "getProposal",
      "outputs": [
        {
          "components": [
            {
              "internalType": "uint256",
              "name": "id",
              "type": "uint256"
            },
            {
              "internalType": "address",
              "name": "proposer",
              "type": "address"
            },
            {
              "internalType": "uint256",
              "name": "voteCount",
              "type": "uint256"
            },
            {
              "internalType": "bool",
              "name": "isWinner",
              "type": "bool"
            }
          ],
          "internalType": "struct Voting.Proposal",
          "name": "",
          "type": "tuple"
        }
      ],
      "stateMutability": "view",
      "type": "function"
    },
    {
      "inputs": [
        {
          "internalType": "address",
          "name": "_user",
          "type": "address"
        }
      ],
      "name": "getUserRole",
      "outputs": [
        {
          "internalType": "enum Voting.Role",
          "name": "",
          "type": "uint8"
        }
      ],
      "stateMutability": "view",
      "type": "function"
    },
    {
      "inputs": [
        {
          "internalType": "address",
          "name": "_voter",
          "type": "address"
        }
      ],
      "name": "getVoterState",
      "outputs": [
        {
          "components": [
            {
              "internalType": "bool",
              "name": "Proposed",
              "type": "bool"
            },
            {
              "internalType": "bool",
              "name": "Voted",
              "type": "bool"
            },
            {
              "internalType": "uint256",
              "name": "weight",
              "type": "uint256"
            }
          ],
          "internalType": "struct Voting.State",
          "name": "",
          "type": "tuple"
        }
      ],
      "stateMutability": "view",
      "type": "function"
    },
    {
      "inputs": [
        {
          "internalType": "address",
          "name": "_voter",
          "type": "address"
        }
      ],
      "name": "getVoterWeight",
      "outputs": [
        {
          "internalType": "uint256",
          "name": "",
          "type": "uint256"
        }
      ],
      "stateMutability": "view",
      "type": "function"
    },
    {
      "inputs": [],
      "name": "proposalCount",
      "outputs": [
        {
          "internalType": "uint256",
          "name": "",
          "type": "uint256"
        }
      ],
      "stateMutability": "view",
      "type": "function"
    },
    {
      "inputs": [
        {
          "internalType": "uint256",
          "name": "",
          "type": "uint256"
        }
      ],
      "name": "proposals",
      "outputs": [
        {
          "internalType": "uint256",
          "name": "id",
          "type": "uint256"
        },
        {
          "internalType": "address",
          "name": "proposer",
          "type": "address"
        },
        {
          "internalType": "uint256",
          "name": "voteCount",
          "type": "uint256"
        },
        {
          "internalType": "bool",
          "name": "isWinner",
          "type": "bool"
        }
      ],
      "stateMutability": "view",
      "type": "function"
    },
    {
      "inputs": [],
      "name": "propose",
      "outputs": [],
      "stateMutability": "nonpayable",
      "type": "function"
    },
    {
      "inputs": [
        {
          "internalType": "address",
          "name": "_voter",
          "type": "address"
        },
        {
          "internalType": "uint256",
          "name": "weight",
          "type": "uint256"
        }
      ],
      "name": "registVoter",
      "outputs": [],
      "stateMutability": "nonpayable",
      "type": "function"
    },
    {
      "inputs": [],
      "name": "restart",
      "outputs": [],
      "stateMutability": "nonpayable",
      "type": "function"
    },
    {
      "inputs": [],
      "name": "startTime",
      "outputs": [
        {
          "internalType": "uint256",
          "name": "",
          "type": "uint256"
        }
      ],
      "stateMutability": "view",
      "type": "function"
    },
    {
      "inputs": [],
      "name": "startVote",
      "outputs": [],
      "stateMutability": "nonpayable",
      "type": "function"
    },
    {
      "inputs": [
        {
          "internalType": "address",
          "name": "",
          "type": "address"
        }
      ],
      "name": "users",
      "outputs": [
        {
          "internalType": "enum Voting.Role",
          "name": "",
          "type": "uint8"
        }
      ],
      "stateMutability": "view",
      "type": "function"
    },
    {
      "inputs": [
        {
          "internalType": "uint256",
          "name": "_proposalId",
          "type": "uint256"
        }
      ],
      "name": "vote",
      "outputs": [],
      "stateMutability": "nonpayable",
      "type": "function"
    },
    {
      "inputs": [],
      "name": "voterCount",
      "outputs": [
        {
          "internalType": "uint256",
          "name": "",
          "type": "uint256"
        }
      ],
      "stateMutability": "view",
      "type": "function"
    },
    {
      "inputs": [
        {
          "internalType": "uint256",
          "name": "",
          "type": "uint256"
        }
      ],
      "name": "voterList",
      "outputs": [
        {
          "internalType": "address",
          "name": "",
          "type": "address"
        }
      ],
      "stateMutability": "view",
      "type": "function"
    },
    {
      "inputs": [
        {
          "internalType": "address",
          "name": "",
          "type": "address"
        }
      ],
      "name": "voters",
      "outputs": [
        {
          "internalType": "bool",
          "name": "Proposed",
          "type": "bool"
        },
        {
          "internalType": "bool",
          "name": "Voted",
          "type": "bool"
        },
        {
          "internalType": "uint256",
          "name": "weight",
          "type": "uint256"
        }
      ],
      "stateMutability": "view",
      "type": "function"
    }
  ],
  "bytecode": "0x6080604052600060015560006002557fffffffffffffffffffffffffffffffffffffffffffffffffffffffffffffffff6003557fffffffffffffffffffffffffffffffffffffffffffffffffffffffffffffffff60045534801561006257600080fd5b50336000806101000a81548173ffffffffffffffffffffffffffffffffffffffff021916908373ffffffffffffffffffffffffffffffffffffffff1602179055506001600560008060009054906101000a900473ffffffffffffffffffffffffffffffffffffffff1673ffffffffffffffffffffffffffffffffffffffff1673ffffffffffffffffffffffffffffffffffffffff16815260200190815260200160002060006101000a81548160ff0219169083600281111561012757610126610131565b5b0217905550610160565b7f4e487b7100000000000000000000000000000000000000000000000000000000600052602160045260246000fd5b6122098061016f6000396000f3fe608060405234801561001057600080fd5b50600436106101215760003560e01c806378e97925116100ad578063c198f8ba11610071578063c198f8ba146102fb578063c7f758a814610305578063d5f3948814610335578063d85c91ae14610353578063da35c6641461038357610121565b806378e9792514610255578063a3ec138d14610273578063a87430ba146102a5578063b57b45ed146102d5578063b9223946146102f157610121565b80633197cbb6116100f45780633197cbb6146101af57806342169e48146101cd57806345a5c089146101eb5780634c0a6af01461021b57806350e2e8af1461022557610121565b80630121b93f14610126578063013cf08b146101425780631ef3755d14610175578063278208511461017f575b600080fd5b610140600480360381019061013b9190611898565b6103a1565b005b61015c60048036038101906101579190611898565b61068d565b60405161016c9493929190611930565b60405180910390f35b61017d6106ea565b005b610199600480360381019061019491906119a1565b610a4c565b6040516101a69190611a45565b60405180910390f35b6101b7610aa2565b6040516101c49190611a60565b60405180910390f35b6101d5610aa8565b6040516101e29190611a60565b60405180910390f35b610205600480360381019061020091906119a1565b610aae565b6040516102129190611adb565b60405180910390f35b610223610b47565b005b61023f600480360381019061023a9190611898565b610c97565b60405161024c9190611af6565b60405180910390f35b61025d610cca565b60405161026a9190611a60565b60405180910390f35b61028d600480360381019061028891906119a1565b610cd0565b60405161029c93929190611b11565b60405180910390f35b6102bf60048036038101906102ba91906119a1565b610d14565b6040516102cc9190611a45565b60405180910390f35b6102ef60048036038101906102ea9190611b48565b610d34565b005b6102f9611130565b005b610303611380565b005b61031f600480360381019061031a9190611898565b61167f565b60405161032c9190611bec565b60405180910390f35b61033d611782565b60405161034a9190611af6565b60405180910390f35b61036d600480360381019061036891906119a1565b6117a6565b60405161037a9190611a60565b60405180910390f35b61038b6117f2565b6040516103989190611a60565b60405180910390f35b60035442101580156103b557506004544211155b6103f4576040517f08c379a00000000000000000000000000000000000000000000000000000000081526004016103eb90611c64565b60405180910390fd5b600280811115610407576104066119ce565b5b600560003373ffffffffffffffffffffffffffffffffffffffff1673ffffffffffffffffffffffffffffffffffffffff16815260200190815260200160002060009054906101000a900460ff166002811115610466576104656119ce565b5b146104a6576040517f08c379a000000000000000000000000000000000000000000000000000000000815260040161049d90611cd0565b60405180910390fd5b600660003373ffffffffffffffffffffffffffffffffffffffff1673ffffffffffffffffffffffffffffffffffffffff16815260200190815260200160002060000160019054906101000a900460ff1615610536576040517f08c379a000000000000000000000000000000000000000000000000000000000815260040161052d90611d3c565b60405180910390fd5b60008111801561054857506002548111155b610587576040517f08c379a000000000000000000000000000000000000000000000000000000000815260040161057e90611da8565b60405180910390fd5b600660003373ffffffffffffffffffffffffffffffffffffffff1673ffffffffffffffffffffffffffffffffffffffff168152602001908152602001600020600101546008600083815260200190815260200160002060020160008282546105ef9190611df7565b925050819055506001600660003373ffffffffffffffffffffffffffffffffffffffff1673ffffffffffffffffffffffffffffffffffffffff16815260200190815260200160002060000160016101000a81548160ff0219169083151502179055507f6fd5d288b0fab89a7ee63c33c6d0430a5a3f813cf781179f3a8b3d46041a5d5a3382604051610682929190611e2b565b60405180910390a150565b60086020528060005260406000206000915090508060000154908060010160009054906101000a900473ffffffffffffffffffffffffffffffffffffffff16908060020154908060030160009054906101000a900460ff16905084565b600160028111156106fe576106fd6119ce565b5b600560003373ffffffffffffffffffffffffffffffffffffffff1673ffffffffffffffffffffffffffffffffffffffff16815260200190815260200160002060009054906101000a900460ff16600281111561075d5761075c6119ce565b5b1461079d576040517f08c379a000000000000000000000000000000000000000000000000000000000815260040161079490611ec6565b60405180910390fd5b6000600190505b600254811161082157600860008281526020019081526020016000206000808201600090556001820160006101000a81549073ffffffffffffffffffffffffffffffffffffffff021916905560028201600090556003820160006101000a81549060ff02191690555050808061081990611ee6565b9150506107a4565b506000600190505b60015481116109bf57600560006007600084815260200190815260200160002060009054906101000a900473ffffffffffffffffffffffffffffffffffffffff1673ffffffffffffffffffffffffffffffffffffffff1673ffffffffffffffffffffffffffffffffffffffff16815260200190815260200160002060006101000a81549060ff0219169055600660006007600084815260200190815260200160002060009054906101000a900473ffffffffffffffffffffffffffffffffffffffff1673ffffffffffffffffffffffffffffffffffffffff1673ffffffffffffffffffffffffffffffffffffffff168152602001908152602001600020600080820160006101000a81549060ff02191690556000820160016101000a81549060ff02191690556001820160009055505060006007600083815260200190815260200160002060006101000a81548173ffffffffffffffffffffffffffffffffffffffff021916908373ffffffffffffffffffffffffffffffffffffffff16021790555080806109b790611ee6565b915050610829565b50600060018190555060006002819055507fffffffffffffffffffffffffffffffffffffffffffffffffffffffffffffffff6003819055507fffffffffffffffffffffffffffffffffffffffffffffffffffffffffffffffff6004819055507ffecc02f1264e9ef46df741eb8fb3b1bb46551cd6950ffaec62884c351c0d2fb160405160405180910390a1565b6000600560008373ffffffffffffffffffffffffffffffffffffffff1673ffffffffffffffffffffffffffffffffffffffff16815260200190815260200160002060009054906101000a900460ff169050919050565b60045481565b60015481565b610ab66117f8565b600660008373ffffffffffffffffffffffffffffffffffffffff1673ffffffffffffffffffffffffffffffffffffffff1681526020019081526020016000206040518060600160405290816000820160009054906101000a900460ff161515151581526020016000820160019054906101000a900460ff161515151581526020016001820154815250509050919050565b60016002811115610b5b57610b5a6119ce565b5b600560003373ffffffffffffffffffffffffffffffffffffffff1673ffffffffffffffffffffffffffffffffffffffff16815260200190815260200160002060009054906101000a900460ff166002811115610bba57610bb96119ce565b5b14610bfa576040517f08c379a0000000000000000000000000000000000000000000000000000000008152600401610bf190611ec6565b60405180910390fd5b6003544210610c3e576040517f08c379a0000000000000000000000000000000000000000000000000000000008152600401610c3590611f7a565b60405180910390fd5b42600381905550607842610c529190611df7565b6004819055507fb30c323e471acb17dedafcb990c97ba085783e5fb76a347c67ba5f8b8d2bcc27600354600454604051610c8d929190611f9a565b60405180910390a1565b60076020528060005260406000206000915054906101000a900473ffffffffffffffffffffffffffffffffffffffff1681565b60035481565b60066020528060005260406000206000915090508060000160009054906101000a900460ff16908060000160019054906101000a900460ff16908060010154905083565b60056020528060005260406000206000915054906101000a900460ff1681565b60016002811115610d4857610d476119ce565b5b600560003373ffffffffffffffffffffffffffffffffffffffff1673ffffffffffffffffffffffffffffffffffffffff16815260200190815260200160002060009054906101000a900460ff166002811115610da757610da66119ce565b5b14610de7576040517f08c379a0000000000000000000000000000000000000000000000000000000008152600401610dde90611ec6565b60405180910390fd5b6003544210610e2b576040517f08c379a0000000000000000000000000000000000000000000000000000000008152600401610e2290611f7a565b60405180910390fd5b600280811115610e3e57610e3d6119ce565b5b600560008473ffffffffffffffffffffffffffffffffffffffff1673ffffffffffffffffffffffffffffffffffffffff16815260200190815260200160002060009054906101000a900460ff166002811115610e9d57610e9c6119ce565b5b146110ab576002600560008473ffffffffffffffffffffffffffffffffffffffff1673ffffffffffffffffffffffffffffffffffffffff16815260200190815260200160002060006101000a81548160ff02191690836002811115610f0557610f046119ce565b5b02179055506000600660008473ffffffffffffffffffffffffffffffffffffffff1673ffffffffffffffffffffffffffffffffffffffff16815260200190815260200160002060000160006101000a81548160ff0219169083151502179055506000600660008473ffffffffffffffffffffffffffffffffffffffff1673ffffffffffffffffffffffffffffffffffffffff16815260200190815260200160002060000160016101000a81548160ff02191690831515021790555080600660008473ffffffffffffffffffffffffffffffffffffffff1673ffffffffffffffffffffffffffffffffffffffff16815260200190815260200160002060010181905550816007600060016000815461101b90611ee6565b919050819055815260200190815260200160002060006101000a81548173ffffffffffffffffffffffffffffffffffffffff021916908373ffffffffffffffffffffffffffffffffffffffff1602179055507fc9809d109946f4463f03468fb5db81c351a4fe5ad0ecaf8b10e3044afa453fdd828260405161109e929190611e2b565b60405180910390a161112c565b80600660008473ffffffffffffffffffffffffffffffffffffffff1673ffffffffffffffffffffffffffffffffffffffff168152602001908152602001600020600101819055507f31d5a8e027dd81c9a51c322ba9d5cbba54ed62959ed0a2422a7d21c2c1e3b41b8282604051611123929190611e2b565b60405180910390a15b5050565b60016002811115611144576111436119ce565b5b600560003373ffffffffffffffffffffffffffffffffffffffff1673ffffffffffffffffffffffffffffffffffffffff16815260200190815260200160002060009054906101000a900460ff1660028111156111a3576111a26119ce565b5b146111e3576040517f08c379a00000000000000000000000000000000000000000000000000000000081526004016111da90611ec6565b60405180910390fd5b600454421015611228576040517f08c379a000000000000000000000000000000000000000000000000000000000815260040161121f9061200f565b60405180910390fd5b600080600190505b600254811161128457816008600083815260200190815260200160002060020154111561127157600860008281526020019081526020016000206002015491505b808061127c90611ee6565b915050611230565b506000600190505b600254811161137c57816008600083815260200190815260200160002060020154036113695760016008600083815260200190815260200160002060030160006101000a81548160ff0219169083151502179055507fc0b90bf98869f06293952242fab7c6c5b0b4791dcbda9d23ba26e542db999899816008600084815260200190815260200160002060010160009054906101000a900473ffffffffffffffffffffffffffffffffffffffff1660086000858152602001908152602001600020600201546040516113609392919061202f565b60405180910390a15b808061137490611ee6565b91505061128c565b5050565b60035442106113c4576040517f08c379a00000000000000000000000000000000000000000000000000000000081526004016113bb906120b2565b60405180910390fd5b6002808111156113d7576113d66119ce565b5b600560003373ffffffffffffffffffffffffffffffffffffffff1673ffffffffffffffffffffffffffffffffffffffff16815260200190815260200160002060009054906101000a900460ff166002811115611436576114356119ce565b5b14611476576040517f08c379a000000000000000000000000000000000000000000000000000000000815260040161146d9061211e565b60405180910390fd5b600660003373ffffffffffffffffffffffffffffffffffffffff1673ffffffffffffffffffffffffffffffffffffffff16815260200190815260200160002060000160009054906101000a900460ff1615611506576040517f08c379a00000000000000000000000000000000000000000000000000000000081526004016114fd9061218a565b60405180910390fd5b6001600660003373ffffffffffffffffffffffffffffffffffffffff1673ffffffffffffffffffffffffffffffffffffffff16815260200190815260200160002060000160006101000a81548160ff021916908315150217905550604051806080016040528060025481526020013373ffffffffffffffffffffffffffffffffffffffff1681526020016000815260200160001515815250600860006002600081546115b190611ee6565b91905081905581526020019081526020016000206000820151816000015560208201518160010160006101000a81548173ffffffffffffffffffffffffffffffffffffffff021916908373ffffffffffffffffffffffffffffffffffffffff1602179055506040820151816002015560608201518160030160006101000a81548160ff0219169083151502179055509050507eb9f9546dcbb30b9c2e53420be4136e5ec686d308d61454a335a30e4a304317600254336040516116759291906121aa565b60405180910390a1565b61168761181d565b60008211801561169957506002548211155b6116d8576040517f08c379a00000000000000000000000000000000000000000000000000000000081526004016116cf90611da8565b60405180910390fd5b60086000838152602001908152602001600020604051806080016040529081600082015481526020016001820160009054906101000a900473ffffffffffffffffffffffffffffffffffffffff1673ffffffffffffffffffffffffffffffffffffffff1673ffffffffffffffffffffffffffffffffffffffff168152602001600282015481526020016003820160009054906101000a900460ff1615151515815250509050919050565b60008054906101000a900473ffffffffffffffffffffffffffffffffffffffff1681565b6000600660008373ffffffffffffffffffffffffffffffffffffffff1673ffffffffffffffffffffffffffffffffffffffff168152602001908152602001600020600101549050919050565b60025481565b6040518060600160405280600015158152602001600015158152602001600081525090565b604051806080016040528060008152602001600073ffffffffffffffffffffffffffffffffffffffff168152602001600081526020016000151581525090565b600080fd5b6000819050919050565b61187581611862565b811461188057600080fd5b50565b6000813590506118928161186c565b92915050565b6000602082840312156118ae576118ad61185d565b5b60006118bc84828501611883565b91505092915050565b6118ce81611862565b82525050565b600073ffffffffffffffffffffffffffffffffffffffff82169050919050565b60006118ff826118d4565b9050919050565b61190f816118f4565b82525050565b60008115159050919050565b61192a81611915565b82525050565b600060808201905061194560008301876118c5565b6119526020830186611906565b61195f60408301856118c5565b61196c6060830184611921565b95945050505050565b61197e816118f4565b811461198957600080fd5b50565b60008135905061199b81611975565b92915050565b6000602082840312156119b7576119b661185d565b5b60006119c58482850161198c565b91505092915050565b7f4e487b7100000000000000000000000000000000000000000000000000000000600052602160045260246000fd5b60038110611a0e57611a0d6119ce565b5b50565b6000819050611a1f826119fd565b919050565b6000611a2f82611a11565b9050919050565b611a3f81611a24565b82525050565b6000602082019050611a5a6000830184611a36565b92915050565b6000602082019050611a7560008301846118c5565b92915050565b611a8481611915565b82525050565b611a9381611862565b82525050565b606082016000820151611aaf6000850182611a7b565b506020820151611ac26020850182611a7b565b506040820151611ad56040850182611a8a565b50505050565b6000606082019050611af06000830184611a99565b92915050565b6000602082019050611b0b6000830184611906565b92915050565b6000606082019050611b266000830186611921565b611b336020830185611921565b611b4060408301846118c5565b949350505050565b60008060408385031215611b5f57611b5e61185d565b5b6000611b6d8582860161198c565b9250506020611b7e85828601611883565b9150509250929050565b611b91816118f4565b82525050565b608082016000820151611bad6000850182611a8a565b506020820151611bc06020850182611b88565b506040820151611bd36040850182611a8a565b506060820151611be66060850182611a7b565b50505050565b6000608082019050611c016000830184611b97565b92915050565b600082825260208201905092915050565b7f4e6f7420766f74696e672074696d652e00000000000000000000000000000000600082015250565b6000611c4e601083611c07565b9150611c5982611c18565b602082019050919050565b60006020820190508181036000830152611c7d81611c41565b9050919050565b7f4f6e6c7920766f7465722063616e20766f74652e000000000000000000000000600082015250565b6000611cba601483611c07565b9150611cc582611c84565b602082019050919050565b60006020820190508181036000830152611ce981611cad565b9050919050565b7f566f74657220616c726561647920766f7465642e000000000000000000000000600082015250565b6000611d26601483611c07565b9150611d3182611cf0565b602082019050919050565b60006020820190508181036000830152611d5581611d19565b9050919050565b7f496e76616c69642070726f706f73616c2049442e000000000000000000000000600082015250565b6000611d92601483611c07565b9150611d9d82611d5c565b602082019050919050565b60006020820190508181036000830152611dc181611d85565b9050919050565b7f4e487b7100000000000000000000000000000000000000000000000000000000600052601160045260246000fd5b6000611e0282611862565b9150611e0d83611862565b9250828201905080821115611e2557611e24611dc8565b5b92915050565b6000604082019050611e406000830185611906565b611e4d60208301846118c5565b9392505050565b7f4f6e6c792061646d696e2063616e2063616c6c20746869732066756e6374696f60008201527f6e2e000000000000000000000000000000000000000000000000000000000000602082015250565b6000611eb0602283611c07565b9150611ebb82611e54565b604082019050919050565b60006020820190508181036000830152611edf81611ea3565b9050919050565b6000611ef182611862565b91507fffffffffffffffffffffffffffffffffffffffffffffffffffffffffffffffff8203611f2357611f22611dc8565b5b600182019050919050565b7f566f74696e6720737461727420616c72656164792e0000000000000000000000600082015250565b6000611f64601583611c07565b9150611f6f82611f2e565b602082019050919050565b60006020820190508181036000830152611f9381611f57565b9050919050565b6000604082019050611faf60008301856118c5565b611fbc60208301846118c5565b9392505050565b7f566f74696e67206e6f7420656e642e0000000000000000000000000000000000600082015250565b6000611ff9600f83611c07565b915061200482611fc3565b602082019050919050565b6000602082019050818103600083015261202881611fec565b9050919050565b600060608201905061204460008301866118c5565b6120516020830185611906565b61205e60408301846118c5565b949350505050565b7f4e6f742070726f706f73652074696d652e000000000000000000000000000000600082015250565b600061209c601183611c07565b91506120a782612066565b602082019050919050565b600060208201905081810360008301526120cb8161208f565b9050919050565b7f4f6e6c7920766f7465722063616e2070726f706f73652e000000000000000000600082015250565b6000612108601783611c07565b9150612113826120d2565b602082019050919050565b60006020820190508181036000830152612137816120fb565b9050919050565b7f566f74657220616c72656164792070726f706f7365642e000000000000000000600082015250565b6000612174601783611c07565b915061217f8261213e565b602082019050919050565b600060208201905081810360008301526121a381612167565b9050919050565b60006040820190506121bf60008301856118c5565b6121cc6020830184611906565b939250505056fea264697066735822122026b5507b0569c71c97d45a5fe738a29d997937ffddba9e8b5eace089b0cd02a164736f6c634300081c0033",
  "linkReferences": {},
  "deployedLinkReferences": {}
}