{
  "_format": "hh-sol-artifact-1",
  "contractName": "Voting",
  "sourceName": "contracts/Voting.sol",
  "abi": [
    {
      "inputs": [],
      "stateMutability": "nonpayable",
      "type": "constructor"
    },
    {
      "anonymous": false,
      "inputs": [
        {
          "indexed": false,
          "internalType": "address",
          "name": "voter",
          "type": "address"
        },
        {
          "indexed": false,
          "internalType": "uint256",
          "name": "proposalId",
          "type": "uint256"
        }
      ],
      "name": "VoteEvent",
      "type": "event"
    },
    {
      "anonymous": false,
      "inputs": [],
      "name": "VoteRestart",
      "type": "event"
    },
    {
      "anonymous": false,
      "inputs": [
        {
          "indexed": false,
          "internalType": "uint256",
          "name": "proposalId",
          "type": "uint256"
        },
        {
          "indexed": false,
          "internalType": "address",
          "name": "proposer",
          "type": "address"
        },
        {
          "indexed": false,
          "internalType": "uint256",
          "name": "voteCount",
          "type": "uint256"
        }
      ],
      "name": "VoteResult",
      "type": "event"
    },
    {
      "anonymous": false,
      "inputs": [
        {
          "indexed": false,
          "internalType": "uint256",
          "name": "startTime",
          "type": "uint256"
        },
        {
          "indexed": false,
          "internalType": "uint256",
          "name": "endTime",
          "type": "uint256"
        }
      ],
      "name": "VoteStart",
      "type": "event"
    },
    {
      "anonymous": false,
      "inputs": [
        {
          "indexed": false,
          "internalType": "uint256",
          "name": "proposalId",
          "type": "uint256"
        },
        {
          "indexed": false,
          "internalType": "address",
          "name": "proposer",
          "type": "address"
        }
      ],
      "name": "setProposal",
      "type": "event"
    },
    {
      "anonymous": false,
      "inputs": [
        {
          "indexed": false,
          "internalType": "address",
          "name": "addr",
          "type": "address"
        }
      ],
      "name": "setUser",
      "type": "event"
    },
    {
      "anonymous": false,
      "inputs": [
        {
          "indexed": false,
          "internalType": "address",
          "name": "voter",
          "type": "address"
        },
        {
          "indexed": false,
          "internalType": "uint256",
          "name": "weight",
          "type": "uint256"
        }
      ],
      "name": "setVoter",
      "type": "event"
    },
    {
      "anonymous": false,
      "inputs": [
        {
          "indexed": false,
          "internalType": "address",
          "name": "voter",
          "type": "address"
        },
        {
          "indexed": false,
          "internalType": "uint256",
          "name": "weight",
          "type": "uint256"
        }
      ],
      "name": "updateVoter",
      "type": "event"
    },
    {
      "inputs": [],
      "name": "deployer",
      "outputs": [
        {
          "internalType": "address",
          "name": "",
          "type": "address"
        }
      ],
      "stateMutability": "view",
      "type": "function"
    },
    {
      "inputs": [],
      "name": "endTime",
      "outputs": [
        {
          "internalType": "uint256",
          "name": "",
          "type": "uint256"
        }
      ],
      "stateMutability": "view",
      "type": "function"
    },
    {
      "inputs": [],
      "name": "endVote",
      "outputs": [],
      "stateMutability": "nonpayable",
      "type": "function"
    },
    {
      "inputs": [
        {
          "internalType": "uint256",
          "name": "_proposalId",
          "type": "uint256"
        }
      ],
      "name": "getProposal",
      "outputs": [
        {
          "components": [
            {
              "internalType": "uint256",
              "name": "id",
              "type": "uint256"
            },
            {
              "internalType": "address",
              "name": "proposer",
              "type": "address"
            },
            {
              "internalType": "uint256",
              "name": "voteCount",
              "type": "uint256"
            },
            {
              "internalType": "bool",
              "name": "isWinner",
              "type": "bool"
            }
          ],
          "internalType": "struct Voting.Proposal",
          "name": "",
          "type": "tuple"
        }
      ],
      "stateMutability": "view",
      "type": "function"
    },
    {
      "inputs": [
        {
          "internalType": "address",
          "name": "_user",
          "type": "address"
        }
      ],
      "name": "getUserRole",
      "outputs": [
        {
          "internalType": "enum Voting.Role",
          "name": "",
          "type": "uint8"
        }
      ],
      "stateMutability": "view",
      "type": "function"
    },
    {
      "inputs": [
        {
          "internalType": "address",
          "name": "_voter",
          "type": "address"
        }
      ],
      "name": "getVoterState",
      "outputs": [
        {
          "components": [
            {
              "internalType": "bool",
              "name": "Proposed",
              "type": "bool"
            },
            {
              "internalType": "bool",
              "name": "Voted",
              "type": "bool"
            },
            {
              "internalType": "uint256",
              "name": "weight",
              "type": "uint256"
            }
          ],
          "internalType": "struct Voting.State",
          "name": "",
          "type": "tuple"
        }
      ],
      "stateMutability": "view",
      "type": "function"
    },
    {
      "inputs": [
        {
          "internalType": "address",
          "name": "_voter",
          "type": "address"
        }
      ],
      "name": "getVoterWeight",
      "outputs": [
        {
          "internalType": "uint256",
          "name": "",
          "type": "uint256"
        }
      ],
      "stateMutability": "view",
      "type": "function"
    },
    {
      "inputs": [],
      "name": "proposalCount",
      "outputs": [
        {
          "internalType": "uint256",
          "name": "",
          "type": "uint256"
        }
      ],
      "stateMutability": "view",
      "type": "function"
    },
    {
      "inputs": [
        {
          "internalType": "uint256",
          "name": "",
          "type": "uint256"
        }
      ],
      "name": "proposals",
      "outputs": [
        {
          "internalType": "uint256",
          "name": "id",
          "type": "uint256"
        },
        {
          "internalType": "address",
          "name": "proposer",
          "type": "address"
        },
        {
          "internalType": "uint256",
          "name": "voteCount",
          "type": "uint256"
        },
        {
          "internalType": "bool",
          "name": "isWinner",
          "type": "bool"
        }
      ],
      "stateMutability": "view",
      "type": "function"
    },
    {
      "inputs": [],
      "name": "propose",
      "outputs": [],
      "stateMutability": "nonpayable",
      "type": "function"
    },
    {
      "inputs": [
        {
          "internalType": "address",
          "name": "_voter",
          "type": "address"
        },
        {
          "internalType": "uint256",
          "name": "weight",
          "type": "uint256"
        }
      ],
      "name": "registVoter",
      "outputs": [],
      "stateMutability": "nonpayable",
      "type": "function"
    },
    {
      "inputs": [],
      "name": "restart",
      "outputs": [],
      "stateMutability": "nonpayable",
      "type": "function"
    },
    {
      "inputs": [],
      "name": "startTime",
      "outputs": [
        {
          "internalType": "uint256",
          "name": "",
          "type": "uint256"
        }
      ],
      "stateMutability": "view",
      "type": "function"
    },
    {
      "inputs": [],
      "name": "startVote",
      "outputs": [],
      "stateMutability": "nonpayable",
      "type": "function"
    },
    {
      "inputs": [
        {
          "internalType": "address",
          "name": "",
          "type": "address"
        }
      ],
      "name": "users",
      "outputs": [
        {
          "internalType": "enum Voting.Role",
          "name": "",
          "type": "uint8"
        }
      ],
      "stateMutability": "view",
      "type": "function"
    },
    {
      "inputs": [
        {
          "internalType": "uint256",
          "name": "_proposalId",
          "type": "uint256"
        }
      ],
      "name": "vote",
      "outputs": [],
      "stateMutability": "nonpayable",
      "type": "function"
    },
    {
      "inputs": [],
      "name": "voterCount",
      "outputs": [
        {
          "internalType": "uint256",
          "name": "",
          "type": "uint256"
        }
      ],
      "stateMutability": "view",
      "type": "function"
    },
    {
      "inputs": [
        {
          "internalType": "uint256",
          "name": "",
          "type": "uint256"
        }
      ],
      "name": "voterList",
      "outputs": [
        {
          "internalType": "address",
          "name": "",
          "type": "address"
        }
      ],
      "stateMutability": "view",
      "type": "function"
    },
    {
      "inputs": [
        {
          "internalType": "address",
          "name": "",
          "type": "address"
        }
      ],
      "name": "voters",
      "outputs": [
        {
          "internalType": "bool",
          "name": "Proposed",
          "type": "bool"
        },
        {
          "internalType": "bool",
          "name": "Voted",
          "type": "bool"
        },
        {
          "internalType": "uint256",
          "name": "weight",
          "type": "uint256"
        }
      ],
      "stateMutability": "view",
      "type": "function"
    }
  ],
  "bytecode": "0x6080604052600060015560006002557fffffffffffffffffffffffffffffffffffffffffffffffffffffffffffffffff6003557fffffffffffffffffffffffffffffffffffffffffffffffffffffffffffffffff60045534801561006257600080fd5b50336000806101000a81548173ffffffffffffffffffffffffffffffffffffffff021916908373ffffffffffffffffffffffffffffffffffffffff1602179055506001600560008060009054906101000a900473ffffffffffffffffffffffffffffffffffffffff1673ffffffffffffffffffffffffffffffffffffffff1673ffffffffffffffffffffffffffffffffffffffff16815260200190815260200160002060006101000a81548160ff0219169083600281111561012757610126610131565b5b0217905550610160565b7f4e487b7100000000000000000000000000000000000000000000000000000000600052602160045260246000fd5b6121878061016f6000396000f3fe608060405234801561001057600080fd5b50600436106101215760003560e01c806378e97925116100ad578063c198f8ba11610071578063c198f8ba146102fb578063c7f758a814610305578063d5f3948814610335578063d85c91ae14610353578063da35c6641461038357610121565b806378e9792514610255578063a3ec138d14610273578063a87430ba146102a5578063b57b45ed146102d5578063b9223946146102f157610121565b80633197cbb6116100f45780633197cbb6146101af57806342169e48146101cd57806345a5c089146101eb5780634c0a6af01461021b57806350e2e8af1461022557610121565b80630121b93f14610126578063013cf08b146101425780631ef3755d14610175578063278208511461017f575b600080fd5b610140600480360381019061013b9190611816565b6103a1565b005b61015c60048036038101906101579190611816565b61068d565b60405161016c94939291906118ae565b60405180910390f35b61017d6106ea565b005b6101996004803603810190610194919061191f565b6109ca565b6040516101a691906119c3565b60405180910390f35b6101b7610a20565b6040516101c491906119de565b60405180910390f35b6101d5610a26565b6040516101e291906119de565b60405180910390f35b6102056004803603810190610200919061191f565b610a2c565b6040516102129190611a59565b60405180910390f35b610223610ac5565b005b61023f600480360381019061023a9190611816565b610c15565b60405161024c9190611a74565b60405180910390f35b61025d610c48565b60405161026a91906119de565b60405180910390f35b61028d6004803603810190610288919061191f565b610c4e565b60405161029c93929190611a8f565b60405180910390f35b6102bf60048036038101906102ba919061191f565b610c92565b6040516102cc91906119c3565b60405180910390f35b6102ef60048036038101906102ea9190611ac6565b610cb2565b005b6102f96110ae565b005b6103036112fe565b005b61031f600480360381019061031a9190611816565b6115fd565b60405161032c9190611b6a565b60405180910390f35b61033d611700565b60405161034a9190611a74565b60405180910390f35b61036d6004803603810190610368919061191f565b611724565b60405161037a91906119de565b60405180910390f35b61038b611770565b60405161039891906119de565b60405180910390f35b60035442101580156103b557506004544211155b6103f4576040517f08c379a00000000000000000000000000000000000000000000000000000000081526004016103eb90611be2565b60405180910390fd5b6002808111156104075761040661194c565b5b600560003373ffffffffffffffffffffffffffffffffffffffff1673ffffffffffffffffffffffffffffffffffffffff16815260200190815260200160002060009054906101000a900460ff1660028111156104665761046561194c565b5b146104a6576040517f08c379a000000000000000000000000000000000000000000000000000000000815260040161049d90611c4e565b60405180910390fd5b600660003373ffffffffffffffffffffffffffffffffffffffff1673ffffffffffffffffffffffffffffffffffffffff16815260200190815260200160002060000160019054906101000a900460ff1615610536576040517f08c379a000000000000000000000000000000000000000000000000000000000815260040161052d90611cba565b60405180910390fd5b60008111801561054857506002548111155b610587576040517f08c379a000000000000000000000000000000000000000000000000000000000815260040161057e90611d26565b60405180910390fd5b600660003373ffffffffffffffffffffffffffffffffffffffff1673ffffffffffffffffffffffffffffffffffffffff168152602001908152602001600020600101546008600083815260200190815260200160002060020160008282546105ef9190611d75565b925050819055506001600660003373ffffffffffffffffffffffffffffffffffffffff1673ffffffffffffffffffffffffffffffffffffffff16815260200190815260200160002060000160016101000a81548160ff0219169083151502179055507f6fd5d288b0fab89a7ee63c33c6d0430a5a3f813cf781179f3a8b3d46041a5d5a3382604051610682929190611da9565b60405180910390a150565b60086020528060005260406000206000915090508060000154908060010160009054906101000a900473ffffffffffffffffffffffffffffffffffffffff16908060020154908060030160009054906101000a900460ff16905084565b600160028111156106fe576106fd61194c565b5b600560003373ffffffffffffffffffffffffffffffffffffffff1673ffffffffffffffffffffffffffffffffffffffff16815260200190815260200160002060009054906101000a900460ff16600281111561075d5761075c61194c565b5b1461079d576040517f08c379a000000000000000000000000000000000000000000000000000000000815260040161079490611e44565b60405180910390fd5b6000600190505b600254811161082157600860008281526020019081526020016000206000808201600090556001820160006101000a81549073ffffffffffffffffffffffffffffffffffffffff021916905560028201600090556003820160006101000a81549060ff02191690555050808061081990611e64565b9150506107a4565b506000600190505b600154811161093d57600660006007600084815260200190815260200160002060009054906101000a900473ffffffffffffffffffffffffffffffffffffffff1673ffffffffffffffffffffffffffffffffffffffff1673ffffffffffffffffffffffffffffffffffffffff168152602001908152602001600020600080820160006101000a81549060ff02191690556000820160016101000a81549060ff02191690556001820160009055505060006007600080815260200190815260200160002060006101000a81548173ffffffffffffffffffffffffffffffffffffffff021916908373ffffffffffffffffffffffffffffffffffffffff160217905550808061093590611e64565b915050610829565b507fffffffffffffffffffffffffffffffffffffffffffffffffffffffffffffffff6003819055507fffffffffffffffffffffffffffffffffffffffffffffffffffffffffffffffff600481905550600060018190555060006002819055507ffecc02f1264e9ef46df741eb8fb3b1bb46551cd6950ffaec62884c351c0d2fb160405160405180910390a1565b6000600560008373ffffffffffffffffffffffffffffffffffffffff1673ffffffffffffffffffffffffffffffffffffffff16815260200190815260200160002060009054906101000a900460ff169050919050565b60045481565b60015481565b610a34611776565b600660008373ffffffffffffffffffffffffffffffffffffffff1673ffffffffffffffffffffffffffffffffffffffff1681526020019081526020016000206040518060600160405290816000820160009054906101000a900460ff161515151581526020016000820160019054906101000a900460ff161515151581526020016001820154815250509050919050565b60016002811115610ad957610ad861194c565b5b600560003373ffffffffffffffffffffffffffffffffffffffff1673ffffffffffffffffffffffffffffffffffffffff16815260200190815260200160002060009054906101000a900460ff166002811115610b3857610b3761194c565b5b14610b78576040517f08c379a0000000000000000000000000000000000000000000000000000000008152600401610b6f90611e44565b60405180910390fd5b6003544210610bbc576040517f08c379a0000000000000000000000000000000000000000000000000000000008152600401610bb390611ef8565b60405180910390fd5b42600381905550607842610bd09190611d75565b6004819055507fb30c323e471acb17dedafcb990c97ba085783e5fb76a347c67ba5f8b8d2bcc27600354600454604051610c0b929190611f18565b60405180910390a1565b60076020528060005260406000206000915054906101000a900473ffffffffffffffffffffffffffffffffffffffff1681565b60035481565b60066020528060005260406000206000915090508060000160009054906101000a900460ff16908060000160019054906101000a900460ff16908060010154905083565b60056020528060005260406000206000915054906101000a900460ff1681565b60016002811115610cc657610cc561194c565b5b600560003373ffffffffffffffffffffffffffffffffffffffff1673ffffffffffffffffffffffffffffffffffffffff16815260200190815260200160002060009054906101000a900460ff166002811115610d2557610d2461194c565b5b14610d65576040517f08c379a0000000000000000000000000000000000000000000000000000000008152600401610d5c90611e44565b60405180910390fd5b6003544210610da9576040517f08c379a0000000000000000000000000000000000000000000000000000000008152600401610da090611ef8565b60405180910390fd5b600280811115610dbc57610dbb61194c565b5b600560008473ffffffffffffffffffffffffffffffffffffffff1673ffffffffffffffffffffffffffffffffffffffff16815260200190815260200160002060009054906101000a900460ff166002811115610e1b57610e1a61194c565b5b14611029576002600560008473ffffffffffffffffffffffffffffffffffffffff1673ffffffffffffffffffffffffffffffffffffffff16815260200190815260200160002060006101000a81548160ff02191690836002811115610e8357610e8261194c565b5b02179055506000600660008473ffffffffffffffffffffffffffffffffffffffff1673ffffffffffffffffffffffffffffffffffffffff16815260200190815260200160002060000160006101000a81548160ff0219169083151502179055506000600660008473ffffffffffffffffffffffffffffffffffffffff1673ffffffffffffffffffffffffffffffffffffffff16815260200190815260200160002060000160016101000a81548160ff02191690831515021790555080600660008473ffffffffffffffffffffffffffffffffffffffff1673ffffffffffffffffffffffffffffffffffffffff168152602001908152602001600020600101819055508160076000600160008154610f9990611e64565b919050819055815260200190815260200160002060006101000a81548173ffffffffffffffffffffffffffffffffffffffff021916908373ffffffffffffffffffffffffffffffffffffffff1602179055507fc9809d109946f4463f03468fb5db81c351a4fe5ad0ecaf8b10e3044afa453fdd828260405161101c929190611da9565b60405180910390a16110aa565b80600660008473ffffffffffffffffffffffffffffffffffffffff1673ffffffffffffffffffffffffffffffffffffffff168152602001908152602001600020600101819055507f31d5a8e027dd81c9a51c322ba9d5cbba54ed62959ed0a2422a7d21c2c1e3b41b82826040516110a1929190611da9565b60405180910390a15b5050565b600160028111156110c2576110c161194c565b5b600560003373ffffffffffffffffffffffffffffffffffffffff1673ffffffffffffffffffffffffffffffffffffffff16815260200190815260200160002060009054906101000a900460ff1660028111156111215761112061194c565b5b14611161576040517f08c379a000000000000000000000000000000000000000000000000000000000815260040161115890611e44565b60405180910390fd5b6004544210156111a6576040517f08c379a000000000000000000000000000000000000000000000000000000000815260040161119d90611f8d565b60405180910390fd5b600080600190505b60025481116112025781600860008381526020019081526020016000206002015411156111ef57600860008281526020019081526020016000206002015491505b80806111fa90611e64565b9150506111ae565b506000600190505b60025481116112fa57816008600083815260200190815260200160002060020154036112e75760016008600083815260200190815260200160002060030160006101000a81548160ff0219169083151502179055507fc0b90bf98869f06293952242fab7c6c5b0b4791dcbda9d23ba26e542db999899816008600084815260200190815260200160002060010160009054906101000a900473ffffffffffffffffffffffffffffffffffffffff1660086000858152602001908152602001600020600201546040516112de93929190611fad565b60405180910390a15b80806112f290611e64565b91505061120a565b5050565b6003544210611342576040517f08c379a000000000000000000000000000000000000000000000000000000000815260040161133990612030565b60405180910390fd5b6002808111156113555761135461194c565b5b600560003373ffffffffffffffffffffffffffffffffffffffff1673ffffffffffffffffffffffffffffffffffffffff16815260200190815260200160002060009054906101000a900460ff1660028111156113b4576113b361194c565b5b146113f4576040517f08c379a00000000000000000000000000000000000000000000000000000000081526004016113eb9061209c565b60405180910390fd5b600660003373ffffffffffffffffffffffffffffffffffffffff1673ffffffffffffffffffffffffffffffffffffffff16815260200190815260200160002060000160009054906101000a900460ff1615611484576040517f08c379a000000000000000000000000000000000000000000000000000000000815260040161147b90612108565b60405180910390fd5b6001600660003373ffffffffffffffffffffffffffffffffffffffff1673ffffffffffffffffffffffffffffffffffffffff16815260200190815260200160002060000160006101000a81548160ff021916908315150217905550604051806080016040528060025481526020013373ffffffffffffffffffffffffffffffffffffffff16815260200160008152602001600015158152506008600060026000815461152f90611e64565b91905081905581526020019081526020016000206000820151816000015560208201518160010160006101000a81548173ffffffffffffffffffffffffffffffffffffffff021916908373ffffffffffffffffffffffffffffffffffffffff1602179055506040820151816002015560608201518160030160006101000a81548160ff0219169083151502179055509050507eb9f9546dcbb30b9c2e53420be4136e5ec686d308d61454a335a30e4a304317600254336040516115f3929190612128565b60405180910390a1565b61160561179b565b60008211801561161757506002548211155b611656576040517f08c379a000000000000000000000000000000000000000000000000000000000815260040161164d90611d26565b60405180910390fd5b60086000838152602001908152602001600020604051806080016040529081600082015481526020016001820160009054906101000a900473ffffffffffffffffffffffffffffffffffffffff1673ffffffffffffffffffffffffffffffffffffffff1673ffffffffffffffffffffffffffffffffffffffff168152602001600282015481526020016003820160009054906101000a900460ff1615151515815250509050919050565b60008054906101000a900473ffffffffffffffffffffffffffffffffffffffff1681565b6000600660008373ffffffffffffffffffffffffffffffffffffffff1673ffffffffffffffffffffffffffffffffffffffff168152602001908152602001600020600101549050919050565b60025481565b6040518060600160405280600015158152602001600015158152602001600081525090565b604051806080016040528060008152602001600073ffffffffffffffffffffffffffffffffffffffff168152602001600081526020016000151581525090565b600080fd5b6000819050919050565b6117f3816117e0565b81146117fe57600080fd5b50565b600081359050611810816117ea565b92915050565b60006020828403121561182c5761182b6117db565b5b600061183a84828501611801565b91505092915050565b61184c816117e0565b82525050565b600073ffffffffffffffffffffffffffffffffffffffff82169050919050565b600061187d82611852565b9050919050565b61188d81611872565b82525050565b60008115159050919050565b6118a881611893565b82525050565b60006080820190506118c36000830187611843565b6118d06020830186611884565b6118dd6040830185611843565b6118ea606083018461189f565b95945050505050565b6118fc81611872565b811461190757600080fd5b50565b600081359050611919816118f3565b92915050565b600060208284031215611935576119346117db565b5b60006119438482850161190a565b91505092915050565b7f4e487b7100000000000000000000000000000000000000000000000000000000600052602160045260246000fd5b6003811061198c5761198b61194c565b5b50565b600081905061199d8261197b565b919050565b60006119ad8261198f565b9050919050565b6119bd816119a2565b82525050565b60006020820190506119d860008301846119b4565b92915050565b60006020820190506119f36000830184611843565b92915050565b611a0281611893565b82525050565b611a11816117e0565b82525050565b606082016000820151611a2d60008501826119f9565b506020820151611a4060208501826119f9565b506040820151611a536040850182611a08565b50505050565b6000606082019050611a6e6000830184611a17565b92915050565b6000602082019050611a896000830184611884565b92915050565b6000606082019050611aa4600083018661189f565b611ab1602083018561189f565b611abe6040830184611843565b949350505050565b60008060408385031215611add57611adc6117db565b5b6000611aeb8582860161190a565b9250506020611afc85828601611801565b9150509250929050565b611b0f81611872565b82525050565b608082016000820151611b2b6000850182611a08565b506020820151611b3e6020850182611b06565b506040820151611b516040850182611a08565b506060820151611b6460608501826119f9565b50505050565b6000608082019050611b7f6000830184611b15565b92915050565b600082825260208201905092915050565b7f4e6f7420766f74696e672074696d652e00000000000000000000000000000000600082015250565b6000611bcc601083611b85565b9150611bd782611b96565b602082019050919050565b60006020820190508181036000830152611bfb81611bbf565b9050919050565b7f4f6e6c7920766f7465722063616e20766f74652e000000000000000000000000600082015250565b6000611c38601483611b85565b9150611c4382611c02565b602082019050919050565b60006020820190508181036000830152611c6781611c2b565b9050919050565b7f566f74657220616c726561647920766f7465642e000000000000000000000000600082015250565b6000611ca4601483611b85565b9150611caf82611c6e565b602082019050919050565b60006020820190508181036000830152611cd381611c97565b9050919050565b7f496e76616c69642070726f706f73616c2049442e000000000000000000000000600082015250565b6000611d10601483611b85565b9150611d1b82611cda565b602082019050919050565b60006020820190508181036000830152611d3f81611d03565b9050919050565b7f4e487b7100000000000000000000000000000000000000000000000000000000600052601160045260246000fd5b6000611d80826117e0565b9150611d8b836117e0565b9250828201905080821115611da357611da2611d46565b5b92915050565b6000604082019050611dbe6000830185611884565b611dcb6020830184611843565b9392505050565b7f4f6e6c792061646d696e2063616e2063616c6c20746869732066756e6374696f60008201527f6e2e000000000000000000000000000000000000000000000000000000000000602082015250565b6000611e2e602283611b85565b9150611e3982611dd2565b604082019050919050565b60006020820190508181036000830152611e5d81611e21565b9050919050565b6000611e6f826117e0565b91507fffffffffffffffffffffffffffffffffffffffffffffffffffffffffffffffff8203611ea157611ea0611d46565b5b600182019050919050565b7f566f74696e6720737461727420616c72656164792e0000000000000000000000600082015250565b6000611ee2601583611b85565b9150611eed82611eac565b602082019050919050565b60006020820190508181036000830152611f1181611ed5565b9050919050565b6000604082019050611f2d6000830185611843565b611f3a6020830184611843565b9392505050565b7f566f74696e67206e6f7420656e642e0000000000000000000000000000000000600082015250565b6000611f77600f83611b85565b9150611f8282611f41565b602082019050919050565b60006020820190508181036000830152611fa681611f6a565b9050919050565b6000606082019050611fc26000830186611843565b611fcf6020830185611884565b611fdc6040830184611843565b949350505050565b7f4e6f742070726f706f73652074696d652e000000000000000000000000000000600082015250565b600061201a601183611b85565b915061202582611fe4565b602082019050919050565b600060208201905081810360008301526120498161200d565b9050919050565b7f4f6e6c7920766f7465722063616e2070726f706f73652e000000000000000000600082015250565b6000612086601783611b85565b915061209182612050565b602082019050919050565b600060208201905081810360008301526120b581612079565b9050919050565b7f566f74657220616c72656164792070726f706f7365642e000000000000000000600082015250565b60006120f2601783611b85565b91506120fd826120bc565b602082019050919050565b60006020820190508181036000830152612121816120e5565b9050919050565b600060408201905061213d6000830185611843565b61214a6020830184611884565b939250505056fea2646970667358221220b26839f0c31805347d08b9d2c018fa739182c63a786fba6595d09f6e52ce23bf64736f6c634300081c0033",
  "linkReferences": {},
  "deployedLinkReferences": {}
}